{
  "_format": "hh-sol-artifact-1",
  "contractName": "Hospital",
  "sourceName": "contracts/Hospital.sol",
  "abi": [
    {
      "inputs": [
        {
          "internalType": "string",
          "name": "_name",
          "type": "string"
        },
        {
          "internalType": "uint256",
          "name": "_age",
          "type": "uint256"
        },
        {
          "internalType": "uint256",
          "name": "_designation",
          "type": "uint256"
        }
      ],
      "name": "add_agent",
      "outputs": [
        {
          "internalType": "address",
          "name": "",
          "type": "address"
        }
      ],
      "stateMutability": "nonpayable",
      "type": "function"
    },
    {
      "inputs": [
        {
          "internalType": "address",
          "name": "_patientAddress",
          "type": "address"
        },
        {
          "internalType": "string",
          "name": "_doctorName",
          "type": "string"
        },
        {
          "internalType": "string",
          "name": "_symptoms",
          "type": "string"
        },
        {
          "internalType": "string",
          "name": "_diagnosis",
          "type": "string"
        },
        {
          "internalType": "string",
          "name": "_treatment",
          "type": "string"
        },
        {
          "internalType": "string",
          "name": "_medication",
          "type": "string"
        },
        {
          "internalType": "string",
          "name": "_detail",
          "type": "string"
        },
        {
          "internalType": "string",
          "name": "_report",
          "type": "string"
        },
        {
          "internalType": "string",
          "name": "_bill",
          "type": "string"
        }
      ],
      "name": "add_record",
      "outputs": [],
      "stateMutability": "nonpayable",
      "type": "function"
    },
    {
      "inputs": [],
      "name": "add_record_byDoctor",
      "outputs": [
        {
          "internalType": "bool",
          "name": "",
          "type": "bool"
        }
      ],
      "stateMutability": "view",
      "type": "function"
    },
    {
      "inputs": [
        {
          "internalType": "uint256",
          "name": "",
          "type": "uint256"
        }
      ],
      "name": "doctorList",
      "outputs": [
        {
          "internalType": "address",
          "name": "",
          "type": "address"
        }
      ],
      "stateMutability": "view",
      "type": "function"
    },
    {
      "inputs": [
        {
          "internalType": "address",
          "name": "addr",
          "type": "address"
        }
      ],
      "name": "get_accessed_doctorlist_for_patient",
      "outputs": [
        {
          "internalType": "address[]",
          "name": "",
          "type": "address[]"
        }
      ],
      "stateMutability": "view",
      "type": "function"
    },
    {
      "inputs": [
        {
          "internalType": "address",
          "name": "addr",
          "type": "address"
        }
      ],
      "name": "get_doctor",
      "outputs": [
        {
          "internalType": "string",
          "name": "",
          "type": "string"
        },
        {
          "internalType": "uint256",
          "name": "",
          "type": "uint256"
        }
      ],
      "stateMutability": "view",
      "type": "function"
    },
    {
      "inputs": [],
      "name": "get_doctor_list",
      "outputs": [
        {
          "internalType": "address[]",
          "name": "",
          "type": "address[]"
        }
      ],
      "stateMutability": "view",
      "type": "function"
    },
    {
      "inputs": [
        {
          "internalType": "address",
          "name": "addr",
          "type": "address"
        }
      ],
      "name": "get_patient",
      "outputs": [
        {
          "internalType": "string",
          "name": "",
          "type": "string"
        },
        {
          "internalType": "uint256",
          "name": "",
          "type": "uint256"
        },
        {
          "internalType": "address",
          "name": "",
          "type": "address"
        }
      ],
      "stateMutability": "view",
      "type": "function"
    },
    {
      "inputs": [
        {
          "internalType": "address",
          "name": "paddr",
          "type": "address"
        },
        {
          "internalType": "address",
          "name": "daddr",
          "type": "address"
        }
      ],
      "name": "get_patient_doctor_name",
      "outputs": [
        {
          "internalType": "string",
          "name": "",
          "type": "string"
        },
        {
          "internalType": "string",
          "name": "",
          "type": "string"
        }
      ],
      "stateMutability": "view",
      "type": "function"
    },
    {
      "inputs": [],
      "name": "get_patient_list",
      "outputs": [
        {
          "internalType": "address[]",
          "name": "",
          "type": "address[]"
        }
      ],
      "stateMutability": "view",
      "type": "function"
    },
    {
      "inputs": [
        {
          "internalType": "address",
          "name": "addr",
          "type": "address"
        }
      ],
      "name": "get_patient_records",
      "outputs": [
        {
          "components": [
            {
              "internalType": "address",
              "name": "patientAddress",
              "type": "address"
            },
            {
              "internalType": "string",
              "name": "doctorName",
              "type": "string"
            },
            {
              "internalType": "string",
              "name": "symptoms",
              "type": "string"
            },
            {
              "internalType": "string",
              "name": "diagnosis",
              "type": "string"
            },
            {
              "internalType": "string",
              "name": "treatment",
              "type": "string"
            },
            {
              "internalType": "string",
              "name": "Medication",
              "type": "string"
            },
            {
              "internalType": "string",
              "name": "details",
              "type": "string"
            },
            {
              "internalType": "string",
              "name": "report",
              "type": "string"
            },
            {
              "internalType": "string",
              "name": "bill",
              "type": "string"
            }
          ],
          "internalType": "struct Hospital.record",
          "name": "",
          "type": "tuple"
        }
      ],
      "stateMutability": "view",
      "type": "function"
    },
    {
      "inputs": [
        {
          "internalType": "uint256",
          "name": "",
          "type": "uint256"
        }
      ],
      "name": "patientList",
      "outputs": [
        {
          "internalType": "address",
          "name": "",
          "type": "address"
        }
      ],
      "stateMutability": "view",
      "type": "function"
    },
    {
      "inputs": [
        {
          "internalType": "address",
          "name": "addr",
          "type": "address"
        }
      ],
      "name": "permit_access",
      "outputs": [],
      "stateMutability": "nonpayable",
      "type": "function"
    },
    {
      "inputs": [
        {
          "internalType": "uint256",
          "name": "",
          "type": "uint256"
        }
      ],
      "name": "records",
      "outputs": [
        {
          "internalType": "address",
          "name": "patientAddress",
          "type": "address"
        },
        {
          "internalType": "string",
          "name": "doctorName",
          "type": "string"
        },
        {
          "internalType": "string",
          "name": "symptoms",
          "type": "string"
        },
        {
          "internalType": "string",
          "name": "diagnosis",
          "type": "string"
        },
        {
          "internalType": "string",
          "name": "treatment",
          "type": "string"
        },
        {
          "internalType": "string",
          "name": "Medication",
          "type": "string"
        },
        {
          "internalType": "string",
          "name": "details",
          "type": "string"
        },
        {
          "internalType": "string",
          "name": "report",
          "type": "string"
        },
        {
          "internalType": "string",
          "name": "bill",
          "type": "string"
        }
      ],
      "stateMutability": "view",
      "type": "function"
    },
    {
      "inputs": [
        {
          "internalType": "address",
          "name": "paddr",
          "type": "address"
        },
        {
          "internalType": "address",
          "name": "daddr",
          "type": "address"
        }
      ],
      "name": "remove_patient",
      "outputs": [],
      "stateMutability": "nonpayable",
      "type": "function"
    },
    {
      "inputs": [
        {
          "internalType": "address",
          "name": "daddr",
          "type": "address"
        }
      ],
      "name": "revoke_access",
      "outputs": [],
      "stateMutability": "nonpayable",
      "type": "function"
    }
  ],
  "bytecode": "0x608060405234801561001057600080fd5b50612a90806100206000396000f3fe608060405234801561001057600080fd5b50600436106100ff5760003560e01c80634672675811610097578063babb1d4111610066578063babb1d4114610302578063bcffb7ca14610332578063c39e96351461034e578063e81ac0541461036c576100ff565b8063467267581461025557806356c98c48146102855780637e15ac0a146102b65780638b12f18f146102d2576100ff565b80631e3fc3b8116100d35780631e3fc3b81461019e57806327b1dcee146101cf57806334461067146101eb5780634042d2d414610223576100ff565b80627ee3ce146101045780630362fe9b14610134578063127ca4b4146101505780631cd9206e14610180575b600080fd5b61011e60048036038101906101199190612074565b61038a565b60405161012b9190612621565b60405180910390f35b61014e600480360381019061014991906120a1565b610460565b005b61016a600480360381019061016591906122fa565b6104fa565b6040516101779190612541565b60405180910390f35b610188610539565b6040516101959190612643565b60405180910390f35b6101b860048036038101906101b391906120a1565b61066b565b6040516101c692919061265e565b60405180910390f35b6101e960048036038101906101e49190612074565b610815565b005b610205600480360381019061020091906122fa565b610822565b60405161021a9998979695949392919061255c565b60405180910390f35b61023d60048036038101906102389190612074565b610ce0565b60405161024c939291906126c5565b60405180910390f35b61026f600480360381019061026a919061228b565b610e63565b60405161027c9190612541565b60405180910390f35b61029f600480360381019061029a9190612074565b611094565b6040516102ad929190612695565b60405180910390f35b6102d060048036038101906102cb91906120e1565b6111b2565b005b6102ec60048036038101906102e79190612074565b6114f6565b6040516102f99190612703565b60405180910390f35b61031c600480360381019061031791906122fa565b611a36565b6040516103299190612541565b60405180910390f35b61034c60048036038101906103479190612074565b611a75565b005b610356611bbe565b6040516103639190612621565b60405180910390f35b610374611c4c565b6040516103819190612621565b60405180910390f35b60606000600360008473ffffffffffffffffffffffffffffffffffffffff1673ffffffffffffffffffffffffffffffffffffffff16815260200190815260200160002060020190508080548060200260200160405190810160405280929190818152602001828054801561045357602002820191906000526020600020905b8160009054906101000a900473ffffffffffffffffffffffffffffffffffffffff1673ffffffffffffffffffffffffffffffffffffffff1681526020019060010190808311610409575b5050505050915050919050565b6104ab600460008373ffffffffffffffffffffffffffffffffffffffff1673ffffffffffffffffffffffffffffffffffffffff16815260200190815260200160002060020183611cda565b6104f6600360008473ffffffffffffffffffffffffffffffffffffffff1673ffffffffffffffffffffffffffffffffffffffff16815260200190815260200160002060020182611cda565b5050565b6001818154811061050a57600080fd5b906000526020600020016000915054906101000a900473ffffffffffffffffffffffffffffffffffffffff1681565b6000806000905060005b600360003373ffffffffffffffffffffffffffffffffffffffff1673ffffffffffffffffffffffffffffffffffffffff1681526020019081526020016000206002018054905081101561066357600360003373ffffffffffffffffffffffffffffffffffffffff1673ffffffffffffffffffffffffffffffffffffffff16815260200190815260200160002060020181815481106105e4576105e36129a9565b5b9060005260206000200160009054906101000a900473ffffffffffffffffffffffffffffffffffffffff1673ffffffffffffffffffffffffffffffffffffffff163373ffffffffffffffffffffffffffffffffffffffff16141561064b5760019150610650565b600080fd5b808061065b90612902565b915050610543565b508091505090565b606080600360008573ffffffffffffffffffffffffffffffffffffffff1673ffffffffffffffffffffffffffffffffffffffff168152602001908152602001600020600001600460008573ffffffffffffffffffffffffffffffffffffffff1673ffffffffffffffffffffffffffffffffffffffff1681526020019081526020016000206000018180546106fe9061289f565b80601f016020809104026020016040519081016040528092919081815260200182805461072a9061289f565b80156107775780601f1061074c57610100808354040283529160200191610777565b820191906000526020600020905b81548152906001019060200180831161075a57829003601f168201915b5050505050915080805461078a9061289f565b80601f01602080910402602001604051908101604052809291908181526020018280546107b69061289f565b80156108035780601f106107d857610100808354040283529160200191610803565b820191906000526020600020905b8154815290600101906020018083116107e657829003601f168201915b50505050509050915091509250929050565b61081f3382610460565b50565b6002818154811061083257600080fd5b90600052602060002090600902016000915090508060000160009054906101000a900473ffffffffffffffffffffffffffffffffffffffff169080600101805461087b9061289f565b80601f01602080910402602001604051908101604052809291908181526020018280546108a79061289f565b80156108f45780601f106108c9576101008083540402835291602001916108f4565b820191906000526020600020905b8154815290600101906020018083116108d757829003601f168201915b5050505050908060020180546109099061289f565b80601f01602080910402602001604051908101604052809291908181526020018280546109359061289f565b80156109825780601f1061095757610100808354040283529160200191610982565b820191906000526020600020905b81548152906001019060200180831161096557829003601f168201915b5050505050908060030180546109979061289f565b80601f01602080910402602001604051908101604052809291908181526020018280546109c39061289f565b8015610a105780601f106109e557610100808354040283529160200191610a10565b820191906000526020600020905b8154815290600101906020018083116109f357829003601f168201915b505050505090806004018054610a259061289f565b80601f0160208091040260200160405190810160405280929190818152602001828054610a519061289f565b8015610a9e5780601f10610a7357610100808354040283529160200191610a9e565b820191906000526020600020905b815481529060010190602001808311610a8157829003601f168201915b505050505090806005018054610ab39061289f565b80601f0160208091040260200160405190810160405280929190818152602001828054610adf9061289f565b8015610b2c5780601f10610b0157610100808354040283529160200191610b2c565b820191906000526020600020905b815481529060010190602001808311610b0f57829003601f168201915b505050505090806006018054610b419061289f565b80601f0160208091040260200160405190810160405280929190818152602001828054610b6d9061289f565b8015610bba5780601f10610b8f57610100808354040283529160200191610bba565b820191906000526020600020905b815481529060010190602001808311610b9d57829003601f168201915b505050505090806007018054610bcf9061289f565b80601f0160208091040260200160405190810160405280929190818152602001828054610bfb9061289f565b8015610c485780601f10610c1d57610100808354040283529160200191610c48565b820191906000526020600020905b815481529060010190602001808311610c2b57829003601f168201915b505050505090806008018054610c5d9061289f565b80601f0160208091040260200160405190810160405280929190818152602001828054610c899061289f565b8015610cd65780601f10610cab57610100808354040283529160200191610cd6565b820191906000526020600020905b815481529060010190602001808311610cb957829003601f168201915b5050505050905089565b6060600080600360008573ffffffffffffffffffffffffffffffffffffffff1673ffffffffffffffffffffffffffffffffffffffff168152602001908152602001600020600001600360008673ffffffffffffffffffffffffffffffffffffffff1673ffffffffffffffffffffffffffffffffffffffff16815260200190815260200160002060010154600560008773ffffffffffffffffffffffffffffffffffffffff1673ffffffffffffffffffffffffffffffffffffffff16815260200190815260200160002060009054906101000a900473ffffffffffffffffffffffffffffffffffffffff16828054610dd69061289f565b80601f0160208091040260200160405190810160405280929190818152602001828054610e029061289f565b8015610e4f5780601f10610e2457610100808354040283529160200191610e4f565b820191906000526020600020905b815481529060010190602001808311610e3257829003601f168201915b505050505092509250925092509193909250565b600080821415610f765783600360003373ffffffffffffffffffffffffffffffffffffffff1673ffffffffffffffffffffffffffffffffffffffff1681526020019081526020016000206000019080519060200190610ec3929190611ed5565b5082600360003373ffffffffffffffffffffffffffffffffffffffff1673ffffffffffffffffffffffffffffffffffffffff168152602001908152602001600020600101819055506000339080600181540180825580915050600190039060005260206000200160009091909190916101000a81548173ffffffffffffffffffffffffffffffffffffffff021916908373ffffffffffffffffffffffffffffffffffffffff16021790555033905061108d565b60018214156110885783600460003373ffffffffffffffffffffffffffffffffffffffff1673ffffffffffffffffffffffffffffffffffffffff1681526020019081526020016000206000019080519060200190610fd5929190611ed5565b5082600460003373ffffffffffffffffffffffffffffffffffffffff1673ffffffffffffffffffffffffffffffffffffffff168152602001908152602001600020600101819055506001339080600181540180825580915050600190039060005260206000200160009091909190916101000a81548173ffffffffffffffffffffffffffffffffffffffff021916908373ffffffffffffffffffffffffffffffffffffffff16021790555033905061108d565b600080fd5b9392505050565b60606000600460008473ffffffffffffffffffffffffffffffffffffffff1673ffffffffffffffffffffffffffffffffffffffff168152602001908152602001600020600001600460008573ffffffffffffffffffffffffffffffffffffffff1673ffffffffffffffffffffffffffffffffffffffff168152602001908152602001600020600101548180546111299061289f565b80601f01602080910402602001604051908101604052809291908181526020018280546111559061289f565b80156111a25780601f10611177576101008083540402835291602001916111a2565b820191906000526020600020905b81548152906001019060200180831161118557829003601f168201915b5050505050915091509150915091565b88600660008b73ffffffffffffffffffffffffffffffffffffffff1673ffffffffffffffffffffffffffffffffffffffff16815260200190815260200160002060000160006101000a81548173ffffffffffffffffffffffffffffffffffffffff021916908373ffffffffffffffffffffffffffffffffffffffff16021790555087600660008b73ffffffffffffffffffffffffffffffffffffffff1673ffffffffffffffffffffffffffffffffffffffff1681526020019081526020016000206001019080519060200190611289929190611ed5565b5086600660008b73ffffffffffffffffffffffffffffffffffffffff1673ffffffffffffffffffffffffffffffffffffffff16815260200190815260200160002060020190805190602001906112e0929190611ed5565b5084600660008b73ffffffffffffffffffffffffffffffffffffffff1673ffffffffffffffffffffffffffffffffffffffff1681526020019081526020016000206004019080519060200190611337929190611ed5565b5085600660008b73ffffffffffffffffffffffffffffffffffffffff1673ffffffffffffffffffffffffffffffffffffffff168152602001908152602001600020600301908051906020019061138e929190611ed5565b5083600660008b73ffffffffffffffffffffffffffffffffffffffff1673ffffffffffffffffffffffffffffffffffffffff16815260200190815260200160002060050190805190602001906113e5929190611ed5565b5082600660008b73ffffffffffffffffffffffffffffffffffffffff1673ffffffffffffffffffffffffffffffffffffffff168152602001908152602001600020600601908051906020019061143c929190611ed5565b5081600660008b73ffffffffffffffffffffffffffffffffffffffff1673ffffffffffffffffffffffffffffffffffffffff1681526020019081526020016000206007019080519060200190611493929190611ed5565b5080600660008b73ffffffffffffffffffffffffffffffffffffffff1673ffffffffffffffffffffffffffffffffffffffff16815260200190815260200160002060080190805190602001906114ea929190611ed5565b50505050505050505050565b6114fe611f5b565b600660008373ffffffffffffffffffffffffffffffffffffffff1673ffffffffffffffffffffffffffffffffffffffff168152602001908152602001600020604051806101200160405290816000820160009054906101000a900473ffffffffffffffffffffffffffffffffffffffff1673ffffffffffffffffffffffffffffffffffffffff1673ffffffffffffffffffffffffffffffffffffffff1681526020016001820180546115af9061289f565b80601f01602080910402602001604051908101604052809291908181526020018280546115db9061289f565b80156116285780601f106115fd57610100808354040283529160200191611628565b820191906000526020600020905b81548152906001019060200180831161160b57829003601f168201915b505050505081526020016002820180546116419061289f565b80601f016020809104026020016040519081016040528092919081815260200182805461166d9061289f565b80156116ba5780601f1061168f576101008083540402835291602001916116ba565b820191906000526020600020905b81548152906001019060200180831161169d57829003601f168201915b505050505081526020016003820180546116d39061289f565b80601f01602080910402602001604051908101604052809291908181526020018280546116ff9061289f565b801561174c5780601f106117215761010080835404028352916020019161174c565b820191906000526020600020905b81548152906001019060200180831161172f57829003601f168201915b505050505081526020016004820180546117659061289f565b80601f01602080910402602001604051908101604052809291908181526020018280546117919061289f565b80156117de5780601f106117b3576101008083540402835291602001916117de565b820191906000526020600020905b8154815290600101906020018083116117c157829003601f168201915b505050505081526020016005820180546117f79061289f565b80601f01602080910402602001604051908101604052809291908181526020018280546118239061289f565b80156118705780601f1061184557610100808354040283529160200191611870565b820191906000526020600020905b81548152906001019060200180831161185357829003601f168201915b505050505081526020016006820180546118899061289f565b80601f01602080910402602001604051908101604052809291908181526020018280546118b59061289f565b80156119025780601f106118d757610100808354040283529160200191611902565b820191906000526020600020905b8154815290600101906020018083116118e557829003601f168201915b5050505050815260200160078201805461191b9061289f565b80601f01602080910402602001604051908101604052809291908181526020018280546119479061289f565b80156119945780601f1061196957610100808354040283529160200191611994565b820191906000526020600020905b81548152906001019060200180831161197757829003601f168201915b505050505081526020016008820180546119ad9061289f565b80601f01602080910402602001604051908101604052809291908181526020018280546119d99061289f565b8015611a265780601f106119fb57610100808354040283529160200191611a26565b820191906000526020600020905b815481529060010190602001808311611a0957829003601f168201915b5050505050815250509050919050565b60008181548110611a4657600080fd5b906000526020600020016000915054906101000a900473ffffffffffffffffffffffffffffffffffffffff1681565b600460008273ffffffffffffffffffffffffffffffffffffffff1673ffffffffffffffffffffffffffffffffffffffff168152602001908152602001600020600201339080600181540180825580915050600190039060005260206000200160009091909190916101000a81548173ffffffffffffffffffffffffffffffffffffffff021916908373ffffffffffffffffffffffffffffffffffffffff160217905550600360003373ffffffffffffffffffffffffffffffffffffffff1673ffffffffffffffffffffffffffffffffffffffff168152602001908152602001600020600201819080600181540180825580915050600190039060005260206000200160009091909190916101000a81548173ffffffffffffffffffffffffffffffffffffffff021916908373ffffffffffffffffffffffffffffffffffffffff16021790555050565b60606001805480602002602001604051908101604052809291908181526020018280548015611c4257602002820191906000526020600020905b8160009054906101000a900473ffffffffffffffffffffffffffffffffffffffff1673ffffffffffffffffffffffffffffffffffffffff1681526020019060010190808311611bf8575b5050505050905090565b60606000805480602002602001604051908101604052809291908181526020018280548015611cd057602002820191906000526020600020905b8160009054906101000a900473ffffffffffffffffffffffffffffffffffffffff1673ffffffffffffffffffffffffffffffffffffffff1681526020019060010190808311611c86575b5050505050905090565b60008060005b8480549050811015611d78578373ffffffffffffffffffffffffffffffffffffffff16858281548110611d1657611d156129a9565b5b9060005260206000200160009054906101000a900473ffffffffffffffffffffffffffffffffffffffff1673ffffffffffffffffffffffffffffffffffffffff161415611d6557600192508091505b8080611d7090612902565b915050611ce0565b5081611d8357600080fd5b600184805490501415611dd557838181548110611da357611da26129a9565b5b9060005260206000200160006101000a81549073ffffffffffffffffffffffffffffffffffffffff0219169055611ecf565b8360018580549050611de791906127e1565b81548110611df857611df76129a9565b5b9060005260206000200160009054906101000a900473ffffffffffffffffffffffffffffffffffffffff16848281548110611e3657611e356129a9565b5b9060005260206000200160006101000a81548173ffffffffffffffffffffffffffffffffffffffff021916908373ffffffffffffffffffffffffffffffffffffffff1602179055508360018580549050611e9091906127e1565b81548110611ea157611ea06129a9565b5b9060005260206000200160006101000a81549073ffffffffffffffffffffffffffffffffffffffff02191690555b50505050565b828054611ee19061289f565b90600052602060002090601f016020900481019282611f035760008555611f4a565b82601f10611f1c57805160ff1916838001178555611f4a565b82800160010185558215611f4a579182015b82811115611f49578251825591602001919060010190611f2e565b5b509050611f579190611fbd565b5090565b604051806101200160405280600073ffffffffffffffffffffffffffffffffffffffff16815260200160608152602001606081526020016060815260200160608152602001606081526020016060815260200160608152602001606081525090565b5b80821115611fd6576000816000905550600101611fbe565b5090565b6000611fed611fe88461274a565b612725565b90508281526020810184848401111561200957612008612a0c565b5b61201484828561285d565b509392505050565b60008135905061202b81612a2c565b92915050565b600082601f83011261204657612045612a07565b5b8135612056848260208601611fda565b91505092915050565b60008135905061206e81612a43565b92915050565b60006020828403121561208a57612089612a16565b5b60006120988482850161201c565b91505092915050565b600080604083850312156120b8576120b7612a16565b5b60006120c68582860161201c565b92505060206120d78582860161201c565b9150509250929050565b60008060008060008060008060006101208a8c03121561210457612103612a16565b5b60006121128c828d0161201c565b99505060208a013567ffffffffffffffff81111561213357612132612a11565b5b61213f8c828d01612031565b98505060408a013567ffffffffffffffff8111156121605761215f612a11565b5b61216c8c828d01612031565b97505060608a013567ffffffffffffffff81111561218d5761218c612a11565b5b6121998c828d01612031565b96505060808a013567ffffffffffffffff8111156121ba576121b9612a11565b5b6121c68c828d01612031565b95505060a08a013567ffffffffffffffff8111156121e7576121e6612a11565b5b6121f38c828d01612031565b94505060c08a013567ffffffffffffffff81111561221457612213612a11565b5b6122208c828d01612031565b93505060e08a013567ffffffffffffffff81111561224157612240612a11565b5b61224d8c828d01612031565b9250506101008a013567ffffffffffffffff81111561226f5761226e612a11565b5b61227b8c828d01612031565b9150509295985092959850929598565b6000806000606084860312156122a4576122a3612a16565b5b600084013567ffffffffffffffff8111156122c2576122c1612a11565b5b6122ce86828701612031565b93505060206122df8682870161205f565b92505060406122f08682870161205f565b9150509250925092565b6000602082840312156123105761230f612a16565b5b600061231e8482850161205f565b91505092915050565b6000612333838361233f565b60208301905092915050565b61234881612815565b82525050565b61235781612815565b82525050565b60006123688261278b565b61237281856127ae565b935061237d8361277b565b8060005b838110156123ae5781516123958882612327565b97506123a0836127a1565b925050600181019050612381565b5085935050505092915050565b6123c481612827565b82525050565b60006123d582612796565b6123df81856127bf565b93506123ef81856020860161286c565b6123f881612a1b565b840191505092915050565b600061240e82612796565b61241881856127d0565b935061242881856020860161286c565b61243181612a1b565b840191505092915050565b600061012083016000830151612455600086018261233f565b506020830151848203602086015261246d82826123ca565b9150506040830151848203604086015261248782826123ca565b915050606083015184820360608601526124a182826123ca565b915050608083015184820360808601526124bb82826123ca565b91505060a083015184820360a08601526124d582826123ca565b91505060c083015184820360c08601526124ef82826123ca565b91505060e083015184820360e086015261250982826123ca565b91505061010083015184820361010086015261252582826123ca565b9150508091505092915050565b61253b81612853565b82525050565b6000602082019050612556600083018461234e565b92915050565b600061012082019050612572600083018c61234e565b8181036020830152612584818b612403565b90508181036040830152612598818a612403565b905081810360608301526125ac8189612403565b905081810360808301526125c08188612403565b905081810360a08301526125d48187612403565b905081810360c08301526125e88186612403565b905081810360e08301526125fc8185612403565b90508181036101008301526126118184612403565b90509a9950505050505050505050565b6000602082019050818103600083015261263b818461235d565b905092915050565b600060208201905061265860008301846123bb565b92915050565b600060408201905081810360008301526126788185612403565b9050818103602083015261268c8184612403565b90509392505050565b600060408201905081810360008301526126af8185612403565b90506126be6020830184612532565b9392505050565b600060608201905081810360008301526126df8186612403565b90506126ee6020830185612532565b6126fb604083018461234e565b949350505050565b6000602082019050818103600083015261271d818461243c565b905092915050565b600061272f612740565b905061273b82826128d1565b919050565b6000604051905090565b600067ffffffffffffffff821115612765576127646129d8565b5b61276e82612a1b565b9050602081019050919050565b6000819050602082019050919050565b600081519050919050565b600081519050919050565b6000602082019050919050565b600082825260208201905092915050565b600082825260208201905092915050565b600082825260208201905092915050565b60006127ec82612853565b91506127f783612853565b92508282101561280a5761280961294b565b5b828203905092915050565b600061282082612833565b9050919050565b60008115159050919050565b600073ffffffffffffffffffffffffffffffffffffffff82169050919050565b6000819050919050565b82818337600083830152505050565b60005b8381101561288a57808201518184015260208101905061286f565b83811115612899576000848401525b50505050565b600060028204905060018216806128b757607f821691505b602082108114156128cb576128ca61297a565b5b50919050565b6128da82612a1b565b810181811067ffffffffffffffff821117156128f9576128f86129d8565b5b80604052505050565b600061290d82612853565b91507fffffffffffffffffffffffffffffffffffffffffffffffffffffffffffffffff8214156129405761293f61294b565b5b600182019050919050565b7f4e487b7100000000000000000000000000000000000000000000000000000000600052601160045260246000fd5b7f4e487b7100000000000000000000000000000000000000000000000000000000600052602260045260246000fd5b7f4e487b7100000000000000000000000000000000000000000000000000000000600052603260045260246000fd5b7f4e487b7100000000000000000000000000000000000000000000000000000000600052604160045260246000fd5b600080fd5b600080fd5b600080fd5b600080fd5b6000601f19601f8301169050919050565b612a3581612815565b8114612a4057600080fd5b50565b612a4c81612853565b8114612a5757600080fd5b5056fea26469706673582212209c1f71e8bca3aad98e94a671ab15d7c1d8bee65b06bae522bfcbebb077fbf0e864736f6c63430008070033",
  "linkReferences": {},
  "deployedLinkReferences": {}
}