{
  "_format": "hh-sol-artifact-1",
  "contractName": "Hospital",
  "sourceName": "contracts/Hospital.sol",
  "abi": [
    {
      "inputs": [
        {
          "internalType": "string",
          "name": "_name",
          "type": "string"
        },
        {
          "internalType": "uint256",
          "name": "_age",
          "type": "uint256"
        },
        {
          "internalType": "uint256",
          "name": "_designation",
          "type": "uint256"
        }
      ],
      "name": "add_agent",
      "outputs": [
        {
          "internalType": "string",
          "name": "",
          "type": "string"
        }
      ],
      "stateMutability": "nonpayable",
      "type": "function"
    },
    {
      "inputs": [
        {
          "internalType": "address",
          "name": "_patientAddress",
          "type": "address"
        },
        {
          "internalType": "string",
          "name": "_symptoms",
          "type": "string"
        },
        {
          "internalType": "string",
          "name": "_diagnosis",
          "type": "string"
        },
        {
          "internalType": "string",
          "name": "_treatment",
          "type": "string"
        },
        {
          "internalType": "string",
          "name": "_medication",
          "type": "string"
        },
        {
          "internalType": "string",
          "name": "_detail",
          "type": "string"
        },
        {
          "internalType": "string",
          "name": "_report",
          "type": "string"
        },
        {
          "internalType": "string",
          "name": "_bill",
          "type": "string"
        }
      ],
      "name": "add_record",
      "outputs": [],
      "stateMutability": "nonpayable",
      "type": "function"
    },
    {
      "inputs": [],
      "name": "add_record_byDoctor",
      "outputs": [
        {
          "internalType": "bool",
          "name": "",
          "type": "bool"
        }
      ],
      "stateMutability": "view",
      "type": "function"
    },
    {
      "inputs": [
        {
          "internalType": "uint256",
          "name": "",
          "type": "uint256"
        }
      ],
      "name": "doctorList",
      "outputs": [
        {
          "internalType": "address",
          "name": "",
          "type": "address"
        }
      ],
      "stateMutability": "view",
      "type": "function"
    },
    {
      "inputs": [
        {
          "internalType": "address",
          "name": "addr",
          "type": "address"
        }
      ],
      "name": "get_accessed_doctorlist_for_patient",
      "outputs": [
        {
          "internalType": "address[]",
          "name": "",
          "type": "address[]"
        }
      ],
      "stateMutability": "view",
      "type": "function"
    },
    {
      "inputs": [
        {
          "internalType": "address",
          "name": "addr",
          "type": "address"
        }
      ],
      "name": "get_doctor",
      "outputs": [
        {
          "internalType": "string",
          "name": "",
          "type": "string"
        },
        {
          "internalType": "uint256",
          "name": "",
          "type": "uint256"
        }
      ],
      "stateMutability": "view",
      "type": "function"
    },
    {
      "inputs": [],
      "name": "get_doctor_list",
      "outputs": [
        {
          "internalType": "address[]",
          "name": "",
          "type": "address[]"
        }
      ],
      "stateMutability": "view",
      "type": "function"
    },
    {
      "inputs": [
        {
          "internalType": "address",
          "name": "addr",
          "type": "address"
        }
      ],
      "name": "get_patient",
      "outputs": [
        {
          "internalType": "string",
          "name": "",
          "type": "string"
        },
        {
          "internalType": "uint256",
          "name": "",
          "type": "uint256"
        },
        {
          "internalType": "address",
          "name": "",
          "type": "address"
        }
      ],
      "stateMutability": "view",
      "type": "function"
    },
    {
      "inputs": [
        {
          "internalType": "address",
          "name": "paddr",
          "type": "address"
        },
        {
          "internalType": "address",
          "name": "daddr",
          "type": "address"
        }
      ],
      "name": "get_patient_doctor_name",
      "outputs": [
        {
          "internalType": "string",
          "name": "",
          "type": "string"
        },
        {
          "internalType": "string",
          "name": "",
          "type": "string"
        }
      ],
      "stateMutability": "view",
      "type": "function"
    },
    {
      "inputs": [],
      "name": "get_patient_list",
      "outputs": [
        {
          "internalType": "address[]",
          "name": "",
          "type": "address[]"
        }
      ],
      "stateMutability": "view",
      "type": "function"
    },
    {
      "inputs": [
        {
          "internalType": "address",
          "name": "addr",
          "type": "address"
        }
      ],
      "name": "get_patient_records",
      "outputs": [
        {
          "components": [
            {
              "internalType": "address",
              "name": "patientAddress",
              "type": "address"
            },
            {
              "internalType": "string",
              "name": "symptoms",
              "type": "string"
            },
            {
              "internalType": "string",
              "name": "diagnosis",
              "type": "string"
            },
            {
              "internalType": "string",
              "name": "treatment",
              "type": "string"
            },
            {
              "internalType": "string",
              "name": "Medication",
              "type": "string"
            },
            {
              "internalType": "string",
              "name": "details",
              "type": "string"
            },
            {
              "internalType": "string",
              "name": "report",
              "type": "string"
            },
            {
              "internalType": "string",
              "name": "bill",
              "type": "string"
            }
          ],
          "internalType": "struct Hospital.record[]",
          "name": "",
          "type": "tuple[]"
        }
      ],
      "stateMutability": "view",
      "type": "function"
    },
    {
      "inputs": [
        {
          "internalType": "uint256",
          "name": "",
          "type": "uint256"
        }
      ],
      "name": "patientList",
      "outputs": [
        {
          "internalType": "address",
          "name": "",
          "type": "address"
        }
      ],
      "stateMutability": "view",
      "type": "function"
    },
    {
      "inputs": [
        {
          "internalType": "address",
          "name": "addr",
          "type": "address"
        }
      ],
      "name": "permit_access",
      "outputs": [],
      "stateMutability": "nonpayable",
      "type": "function"
    },
    {
      "inputs": [
        {
          "internalType": "uint256",
          "name": "",
          "type": "uint256"
        }
      ],
      "name": "records",
      "outputs": [
        {
          "internalType": "address",
          "name": "patientAddress",
          "type": "address"
        },
        {
          "internalType": "string",
          "name": "symptoms",
          "type": "string"
        },
        {
          "internalType": "string",
          "name": "diagnosis",
          "type": "string"
        },
        {
          "internalType": "string",
          "name": "treatment",
          "type": "string"
        },
        {
          "internalType": "string",
          "name": "Medication",
          "type": "string"
        },
        {
          "internalType": "string",
          "name": "details",
          "type": "string"
        },
        {
          "internalType": "string",
          "name": "report",
          "type": "string"
        },
        {
          "internalType": "string",
          "name": "bill",
          "type": "string"
        }
      ],
      "stateMutability": "view",
      "type": "function"
    },
    {
      "inputs": [
        {
          "internalType": "address",
          "name": "paddr",
          "type": "address"
        },
        {
          "internalType": "address",
          "name": "daddr",
          "type": "address"
        }
      ],
      "name": "remove_patient",
      "outputs": [],
      "stateMutability": "nonpayable",
      "type": "function"
    },
    {
      "inputs": [
        {
          "internalType": "address",
          "name": "daddr",
          "type": "address"
        }
      ],
      "name": "revoke_access",
      "outputs": [],
      "stateMutability": "nonpayable",
      "type": "function"
    }
  ],
  "bytecode": "0x608060405234801561001057600080fd5b50612b5c806100206000396000f3fe608060405234801561001057600080fd5b50600436106100ff5760003560e01c80634672675811610097578063babb1d4111610066578063babb1d4114610301578063bcffb7ca14610331578063c39e96351461034d578063e81ac0541461036b576100ff565b8063467267581461025457806350f0fb1a1461028457806356c98c48146102a05780638b12f18f146102d1576100ff565b80631e3fc3b8116100d35780631e3fc3b81461019e57806327b1dcee146101cf57806334461067146101eb5780634042d2d414610222576100ff565b80627ee3ce146101045780630362fe9b14610134578063127ca4b4146101505780631cd9206e14610180575b600080fd5b61011e600480360381019061011991906120be565b610389565b60405161012b9190612692565b60405180910390f35b61014e600480360381019061014991906120eb565b61045f565b005b61016a60048036038101906101659190612314565b6104f9565b60405161017791906125c8565b60405180910390f35b610188610538565b60405161019591906126d6565b60405180910390f35b6101b860048036038101906101b391906120eb565b61066a565b6040516101c6929190612713565b60405180910390f35b6101e960048036038101906101e491906120be565b610814565b005b61020560048036038101906102009190612314565b610821565b6040516102199897969594939291906125e3565b60405180910390f35b61023c600480360381019061023791906120be565b610c51565b60405161024b9392919061277a565b60405180910390f35b61026e600480360381019061026991906122a5565b610dd4565b60405161027b91906126f1565b60405180910390f35b61029e6004803603810190610299919061212b565b61100d565b005b6102ba60048036038101906102b591906120be565b6114ce565b6040516102c892919061274a565b60405180910390f35b6102eb60048036038101906102e691906120be565b6115ec565b6040516102f891906126b4565b60405180910390f35b61031b60048036038101906103169190612314565b611ae2565b60405161032891906125c8565b60405180910390f35b61034b600480360381019061034691906120be565b611b21565b005b610355611c6a565b6040516103629190612692565b60405180910390f35b610373611cf8565b6040516103809190612692565b60405180910390f35b60606000600360008473ffffffffffffffffffffffffffffffffffffffff1673ffffffffffffffffffffffffffffffffffffffff16815260200190815260200160002060020190508080548060200260200160405190810160405280929190818152602001828054801561045257602002820191906000526020600020905b8160009054906101000a900473ffffffffffffffffffffffffffffffffffffffff1673ffffffffffffffffffffffffffffffffffffffff1681526020019060010190808311610408575b5050505050915050919050565b6104aa600460008373ffffffffffffffffffffffffffffffffffffffff1673ffffffffffffffffffffffffffffffffffffffff16815260200190815260200160002060020183611d86565b6104f5600360008473ffffffffffffffffffffffffffffffffffffffff1673ffffffffffffffffffffffffffffffffffffffff16815260200190815260200160002060020182611d86565b5050565b6001818154811061050957600080fd5b906000526020600020016000915054906101000a900473ffffffffffffffffffffffffffffffffffffffff1681565b6000806000905060005b600360003373ffffffffffffffffffffffffffffffffffffffff1673ffffffffffffffffffffffffffffffffffffffff1681526020019081526020016000206002018054905081101561066257600360003373ffffffffffffffffffffffffffffffffffffffff1673ffffffffffffffffffffffffffffffffffffffff16815260200190815260200160002060020181815481106105e3576105e2612a75565b5b9060005260206000200160009054906101000a900473ffffffffffffffffffffffffffffffffffffffff1673ffffffffffffffffffffffffffffffffffffffff163373ffffffffffffffffffffffffffffffffffffffff16141561064a576001915061064f565b600080fd5b808061065a906129ce565b915050610542565b508091505090565b606080600360008573ffffffffffffffffffffffffffffffffffffffff1673ffffffffffffffffffffffffffffffffffffffff168152602001908152602001600020600001600460008573ffffffffffffffffffffffffffffffffffffffff1673ffffffffffffffffffffffffffffffffffffffff1681526020019081526020016000206000018180546106fd9061296b565b80601f01602080910402602001604051908101604052809291908181526020018280546107299061296b565b80156107765780601f1061074b57610100808354040283529160200191610776565b820191906000526020600020905b81548152906001019060200180831161075957829003601f168201915b505050505091508080546107899061296b565b80601f01602080910402602001604051908101604052809291908181526020018280546107b59061296b565b80156108025780601f106107d757610100808354040283529160200191610802565b820191906000526020600020905b8154815290600101906020018083116107e557829003601f168201915b50505050509050915091509250929050565b61081e338261045f565b50565b6002818154811061083157600080fd5b90600052602060002090600802016000915090508060000160009054906101000a900473ffffffffffffffffffffffffffffffffffffffff169080600101805461087a9061296b565b80601f01602080910402602001604051908101604052809291908181526020018280546108a69061296b565b80156108f35780601f106108c8576101008083540402835291602001916108f3565b820191906000526020600020905b8154815290600101906020018083116108d657829003601f168201915b5050505050908060020180546109089061296b565b80601f01602080910402602001604051908101604052809291908181526020018280546109349061296b565b80156109815780601f1061095657610100808354040283529160200191610981565b820191906000526020600020905b81548152906001019060200180831161096457829003601f168201915b5050505050908060030180546109969061296b565b80601f01602080910402602001604051908101604052809291908181526020018280546109c29061296b565b8015610a0f5780601f106109e457610100808354040283529160200191610a0f565b820191906000526020600020905b8154815290600101906020018083116109f257829003601f168201915b505050505090806004018054610a249061296b565b80601f0160208091040260200160405190810160405280929190818152602001828054610a509061296b565b8015610a9d5780601f10610a7257610100808354040283529160200191610a9d565b820191906000526020600020905b815481529060010190602001808311610a8057829003601f168201915b505050505090806005018054610ab29061296b565b80601f0160208091040260200160405190810160405280929190818152602001828054610ade9061296b565b8015610b2b5780601f10610b0057610100808354040283529160200191610b2b565b820191906000526020600020905b815481529060010190602001808311610b0e57829003601f168201915b505050505090806006018054610b409061296b565b80601f0160208091040260200160405190810160405280929190818152602001828054610b6c9061296b565b8015610bb95780601f10610b8e57610100808354040283529160200191610bb9565b820191906000526020600020905b815481529060010190602001808311610b9c57829003601f168201915b505050505090806007018054610bce9061296b565b80601f0160208091040260200160405190810160405280929190818152602001828054610bfa9061296b565b8015610c475780601f10610c1c57610100808354040283529160200191610c47565b820191906000526020600020905b815481529060010190602001808311610c2a57829003601f168201915b5050505050905088565b6060600080600360008573ffffffffffffffffffffffffffffffffffffffff1673ffffffffffffffffffffffffffffffffffffffff168152602001908152602001600020600001600360008673ffffffffffffffffffffffffffffffffffffffff1673ffffffffffffffffffffffffffffffffffffffff16815260200190815260200160002060010154600560008773ffffffffffffffffffffffffffffffffffffffff1673ffffffffffffffffffffffffffffffffffffffff16815260200190815260200160002060009054906101000a900473ffffffffffffffffffffffffffffffffffffffff16828054610d479061296b565b80601f0160208091040260200160405190810160405280929190818152602001828054610d739061296b565b8015610dc05780601f10610d9557610100808354040283529160200191610dc0565b820191906000526020600020905b815481529060010190602001808311610da357829003601f168201915b505050505092509250925092509193909250565b606060003390506000831415610eee5784600360003373ffffffffffffffffffffffffffffffffffffffff1673ffffffffffffffffffffffffffffffffffffffff1681526020019081526020016000206000019080519060200190610e3a929190611f81565b5083600360003373ffffffffffffffffffffffffffffffffffffffff1673ffffffffffffffffffffffffffffffffffffffff168152602001908152602001600020600101819055506000819080600181540180825580915050600190039060005260206000200160009091909190916101000a81548173ffffffffffffffffffffffffffffffffffffffff021916908373ffffffffffffffffffffffffffffffffffffffff16021790555084915050611006565b60018314156110015784600460008373ffffffffffffffffffffffffffffffffffffffff1673ffffffffffffffffffffffffffffffffffffffff1681526020019081526020016000206000019080519060200190610f4d929190611f81565b5083600460008373ffffffffffffffffffffffffffffffffffffffff1673ffffffffffffffffffffffffffffffffffffffff168152602001908152602001600020600101819055506001819080600181540180825580915050600190039060005260206000200160009091909190916101000a81548173ffffffffffffffffffffffffffffffffffffffff021916908373ffffffffffffffffffffffffffffffffffffffff16021790555084915050611006565b600080fd5b9392505050565b60006040518061010001604052808a73ffffffffffffffffffffffffffffffffffffffff168152602001898152602001888152602001878152602001868152602001858152602001848152602001838152509050600360008a73ffffffffffffffffffffffffffffffffffffffff1673ffffffffffffffffffffffffffffffffffffffff16815260200190815260200160002060030181908060018154018082558091505060019003906000526020600020906008020160009091909190915060008201518160000160006101000a81548173ffffffffffffffffffffffffffffffffffffffff021916908373ffffffffffffffffffffffffffffffffffffffff1602179055506020820151816001019080519060200190611130929190611f81565b50604082015181600201908051906020019061114d929190611f81565b50606082015181600301908051906020019061116a929190611f81565b506080820151816004019080519060200190611187929190611f81565b5060a08201518160050190805190602001906111a4929190611f81565b5060c08201518160060190805190602001906111c1929190611f81565b5060e08201518160070190805190602001906111de929190611f81565b50505088600660008b73ffffffffffffffffffffffffffffffffffffffff1673ffffffffffffffffffffffffffffffffffffffff16815260200190815260200160002060000160006101000a81548173ffffffffffffffffffffffffffffffffffffffff021916908373ffffffffffffffffffffffffffffffffffffffff16021790555087600660008b73ffffffffffffffffffffffffffffffffffffffff1673ffffffffffffffffffffffffffffffffffffffff16815260200190815260200160002060010190805190602001906112b8929190611f81565b5085600660008b73ffffffffffffffffffffffffffffffffffffffff1673ffffffffffffffffffffffffffffffffffffffff168152602001908152602001600020600301908051906020019061130f929190611f81565b5086600660008b73ffffffffffffffffffffffffffffffffffffffff1673ffffffffffffffffffffffffffffffffffffffff1681526020019081526020016000206002019080519060200190611366929190611f81565b5084600660008b73ffffffffffffffffffffffffffffffffffffffff1673ffffffffffffffffffffffffffffffffffffffff16815260200190815260200160002060040190805190602001906113bd929190611f81565b5083600660008b73ffffffffffffffffffffffffffffffffffffffff1673ffffffffffffffffffffffffffffffffffffffff1681526020019081526020016000206005019080519060200190611414929190611f81565b5082600660008b73ffffffffffffffffffffffffffffffffffffffff1673ffffffffffffffffffffffffffffffffffffffff168152602001908152602001600020600601908051906020019061146b929190611f81565b5081600660008b73ffffffffffffffffffffffffffffffffffffffff1673ffffffffffffffffffffffffffffffffffffffff16815260200190815260200160002060070190805190602001906114c2929190611f81565b50505050505050505050565b60606000600460008473ffffffffffffffffffffffffffffffffffffffff1673ffffffffffffffffffffffffffffffffffffffff168152602001908152602001600020600001600460008573ffffffffffffffffffffffffffffffffffffffff1673ffffffffffffffffffffffffffffffffffffffff168152602001908152602001600020600101548180546115639061296b565b80601f016020809104026020016040519081016040528092919081815260200182805461158f9061296b565b80156115dc5780601f106115b1576101008083540402835291602001916115dc565b820191906000526020600020905b8154815290600101906020018083116115bf57829003601f168201915b5050505050915091509150915091565b6060600360008373ffffffffffffffffffffffffffffffffffffffff1673ffffffffffffffffffffffffffffffffffffffff168152602001908152602001600020600301805480602002602001604051908101604052809291908181526020016000905b82821015611ad75783829060005260206000209060080201604051806101000160405290816000820160009054906101000a900473ffffffffffffffffffffffffffffffffffffffff1673ffffffffffffffffffffffffffffffffffffffff1673ffffffffffffffffffffffffffffffffffffffff1681526020016001820180546116da9061296b565b80601f01602080910402602001604051908101604052809291908181526020018280546117069061296b565b80156117535780601f1061172857610100808354040283529160200191611753565b820191906000526020600020905b81548152906001019060200180831161173657829003601f168201915b5050505050815260200160028201805461176c9061296b565b80601f01602080910402602001604051908101604052809291908181526020018280546117989061296b565b80156117e55780601f106117ba576101008083540402835291602001916117e5565b820191906000526020600020905b8154815290600101906020018083116117c857829003601f168201915b505050505081526020016003820180546117fe9061296b565b80601f016020809104026020016040519081016040528092919081815260200182805461182a9061296b565b80156118775780601f1061184c57610100808354040283529160200191611877565b820191906000526020600020905b81548152906001019060200180831161185a57829003601f168201915b505050505081526020016004820180546118909061296b565b80601f01602080910402602001604051908101604052809291908181526020018280546118bc9061296b565b80156119095780601f106118de57610100808354040283529160200191611909565b820191906000526020600020905b8154815290600101906020018083116118ec57829003601f168201915b505050505081526020016005820180546119229061296b565b80601f016020809104026020016040519081016040528092919081815260200182805461194e9061296b565b801561199b5780601f106119705761010080835404028352916020019161199b565b820191906000526020600020905b81548152906001019060200180831161197e57829003601f168201915b505050505081526020016006820180546119b49061296b565b80601f01602080910402602001604051908101604052809291908181526020018280546119e09061296b565b8015611a2d5780601f10611a0257610100808354040283529160200191611a2d565b820191906000526020600020905b815481529060010190602001808311611a1057829003601f168201915b50505050508152602001600782018054611a469061296b565b80601f0160208091040260200160405190810160405280929190818152602001828054611a729061296b565b8015611abf5780601f10611a9457610100808354040283529160200191611abf565b820191906000526020600020905b815481529060010190602001808311611aa257829003601f168201915b50505050508152505081526020019060010190611650565b505050509050919050565b60008181548110611af257600080fd5b906000526020600020016000915054906101000a900473ffffffffffffffffffffffffffffffffffffffff1681565b600460008273ffffffffffffffffffffffffffffffffffffffff1673ffffffffffffffffffffffffffffffffffffffff168152602001908152602001600020600201339080600181540180825580915050600190039060005260206000200160009091909190916101000a81548173ffffffffffffffffffffffffffffffffffffffff021916908373ffffffffffffffffffffffffffffffffffffffff160217905550600360003373ffffffffffffffffffffffffffffffffffffffff1673ffffffffffffffffffffffffffffffffffffffff168152602001908152602001600020600201819080600181540180825580915050600190039060005260206000200160009091909190916101000a81548173ffffffffffffffffffffffffffffffffffffffff021916908373ffffffffffffffffffffffffffffffffffffffff16021790555050565b60606001805480602002602001604051908101604052809291908181526020018280548015611cee57602002820191906000526020600020905b8160009054906101000a900473ffffffffffffffffffffffffffffffffffffffff1673ffffffffffffffffffffffffffffffffffffffff1681526020019060010190808311611ca4575b5050505050905090565b60606000805480602002602001604051908101604052809291908181526020018280548015611d7c57602002820191906000526020600020905b8160009054906101000a900473ffffffffffffffffffffffffffffffffffffffff1673ffffffffffffffffffffffffffffffffffffffff1681526020019060010190808311611d32575b5050505050905090565b60008060005b8480549050811015611e24578373ffffffffffffffffffffffffffffffffffffffff16858281548110611dc257611dc1612a75565b5b9060005260206000200160009054906101000a900473ffffffffffffffffffffffffffffffffffffffff1673ffffffffffffffffffffffffffffffffffffffff161415611e1157600192508091505b8080611e1c906129ce565b915050611d8c565b5081611e2f57600080fd5b600184805490501415611e8157838181548110611e4f57611e4e612a75565b5b9060005260206000200160006101000a81549073ffffffffffffffffffffffffffffffffffffffff0219169055611f7b565b8360018580549050611e9391906128ad565b81548110611ea457611ea3612a75565b5b9060005260206000200160009054906101000a900473ffffffffffffffffffffffffffffffffffffffff16848281548110611ee257611ee1612a75565b5b9060005260206000200160006101000a81548173ffffffffffffffffffffffffffffffffffffffff021916908373ffffffffffffffffffffffffffffffffffffffff1602179055508360018580549050611f3c91906128ad565b81548110611f4d57611f4c612a75565b5b9060005260206000200160006101000a81549073ffffffffffffffffffffffffffffffffffffffff02191690555b50505050565b828054611f8d9061296b565b90600052602060002090601f016020900481019282611faf5760008555611ff6565b82601f10611fc857805160ff1916838001178555611ff6565b82800160010185558215611ff6579182015b82811115611ff5578251825591602001919060010190611fda565b5b5090506120039190612007565b5090565b5b80821115612020576000816000905550600101612008565b5090565b6000612037612032846127dd565b6127b8565b90508281526020810184848401111561205357612052612ad8565b5b61205e848285612929565b509392505050565b60008135905061207581612af8565b92915050565b600082601f8301126120905761208f612ad3565b5b81356120a0848260208601612024565b91505092915050565b6000813590506120b881612b0f565b92915050565b6000602082840312156120d4576120d3612ae2565b5b60006120e284828501612066565b91505092915050565b6000806040838503121561210257612101612ae2565b5b600061211085828601612066565b925050602061212185828601612066565b9150509250929050565b600080600080600080600080610100898b03121561214c5761214b612ae2565b5b600061215a8b828c01612066565b985050602089013567ffffffffffffffff81111561217b5761217a612add565b5b6121878b828c0161207b565b975050604089013567ffffffffffffffff8111156121a8576121a7612add565b5b6121b48b828c0161207b565b965050606089013567ffffffffffffffff8111156121d5576121d4612add565b5b6121e18b828c0161207b565b955050608089013567ffffffffffffffff81111561220257612201612add565b5b61220e8b828c0161207b565b94505060a089013567ffffffffffffffff81111561222f5761222e612add565b5b61223b8b828c0161207b565b93505060c089013567ffffffffffffffff81111561225c5761225b612add565b5b6122688b828c0161207b565b92505060e089013567ffffffffffffffff81111561228957612288612add565b5b6122958b828c0161207b565b9150509295985092959890939650565b6000806000606084860312156122be576122bd612ae2565b5b600084013567ffffffffffffffff8111156122dc576122db612add565b5b6122e88682870161207b565b93505060206122f9868287016120a9565b925050604061230a868287016120a9565b9150509250925092565b60006020828403121561232a57612329612ae2565b5b6000612338848285016120a9565b91505092915050565b600061234d838361236d565b60208301905092915050565b600061236583836124df565b905092915050565b612376816128e1565b82525050565b612385816128e1565b82525050565b60006123968261282e565b6123a08185612869565b93506123ab8361280e565b8060005b838110156123dc5781516123c38882612341565b97506123ce8361284f565b9250506001810190506123af565b5085935050505092915050565b60006123f482612839565b6123fe818561287a565b9350836020820285016124108561281e565b8060005b8581101561244c578484038952815161242d8582612359565b94506124388361285c565b925060208a01995050600181019050612414565b50829750879550505050505092915050565b612467816128f3565b82525050565b600061247882612844565b612482818561288b565b9350612492818560208601612938565b61249b81612ae7565b840191505092915050565b60006124b182612844565b6124bb818561289c565b93506124cb818560208601612938565b6124d481612ae7565b840191505092915050565b6000610100830160008301516124f8600086018261236d565b5060208301518482036020860152612510828261246d565b9150506040830151848203604086015261252a828261246d565b91505060608301518482036060860152612544828261246d565b9150506080830151848203608086015261255e828261246d565b91505060a083015184820360a0860152612578828261246d565b91505060c083015184820360c0860152612592828261246d565b91505060e083015184820360e08601526125ac828261246d565b9150508091505092915050565b6125c28161291f565b82525050565b60006020820190506125dd600083018461237c565b92915050565b6000610100820190506125f9600083018b61237c565b818103602083015261260b818a6124a6565b9050818103604083015261261f81896124a6565b9050818103606083015261263381886124a6565b9050818103608083015261264781876124a6565b905081810360a083015261265b81866124a6565b905081810360c083015261266f81856124a6565b905081810360e083015261268381846124a6565b90509998505050505050505050565b600060208201905081810360008301526126ac818461238b565b905092915050565b600060208201905081810360008301526126ce81846123e9565b905092915050565b60006020820190506126eb600083018461245e565b92915050565b6000602082019050818103600083015261270b81846124a6565b905092915050565b6000604082019050818103600083015261272d81856124a6565b9050818103602083015261274181846124a6565b90509392505050565b6000604082019050818103600083015261276481856124a6565b905061277360208301846125b9565b9392505050565b6000606082019050818103600083015261279481866124a6565b90506127a360208301856125b9565b6127b0604083018461237c565b949350505050565b60006127c26127d3565b90506127ce828261299d565b919050565b6000604051905090565b600067ffffffffffffffff8211156127f8576127f7612aa4565b5b61280182612ae7565b9050602081019050919050565b6000819050602082019050919050565b6000819050602082019050919050565b600081519050919050565b600081519050919050565b600081519050919050565b6000602082019050919050565b6000602082019050919050565b600082825260208201905092915050565b600082825260208201905092915050565b600082825260208201905092915050565b600082825260208201905092915050565b60006128b88261291f565b91506128c38361291f565b9250828210156128d6576128d5612a17565b5b828203905092915050565b60006128ec826128ff565b9050919050565b60008115159050919050565b600073ffffffffffffffffffffffffffffffffffffffff82169050919050565b6000819050919050565b82818337600083830152505050565b60005b8381101561295657808201518184015260208101905061293b565b83811115612965576000848401525b50505050565b6000600282049050600182168061298357607f821691505b6020821081141561299757612996612a46565b5b50919050565b6129a682612ae7565b810181811067ffffffffffffffff821117156129c5576129c4612aa4565b5b80604052505050565b60006129d98261291f565b91507fffffffffffffffffffffffffffffffffffffffffffffffffffffffffffffffff821415612a0c57612a0b612a17565b5b600182019050919050565b7f4e487b7100000000000000000000000000000000000000000000000000000000600052601160045260246000fd5b7f4e487b7100000000000000000000000000000000000000000000000000000000600052602260045260246000fd5b7f4e487b7100000000000000000000000000000000000000000000000000000000600052603260045260246000fd5b7f4e487b7100000000000000000000000000000000000000000000000000000000600052604160045260246000fd5b600080fd5b600080fd5b600080fd5b600080fd5b6000601f19601f8301169050919050565b612b01816128e1565b8114612b0c57600080fd5b50565b612b188161291f565b8114612b2357600080fd5b5056fea264697066735822122007058ed83e72ad004fa010bfd625d3da94620323d63c2ac94d116e6bd661b6f364736f6c63430008070033",
  "linkReferences": {},
  "deployedLinkReferences": {}
}